{
  "address": "0x7210DDE31B00Cc0187D4063FA5fbB85279FD6517",
  "abi": [
    {
      "inputs": [],
      "stateMutability": "nonpayable",
      "type": "constructor"
    },
    {
      "inputs": [],
      "name": "BLOCKS_PER_WEEK",
      "outputs": [
        {
          "internalType": "uint256",
          "name": "",
          "type": "uint256"
        }
      ],
      "stateMutability": "view",
      "type": "function"
    },
    {
      "inputs": [
        {
          "internalType": "uint256",
          "name": "",
          "type": "uint256"
        }
      ],
      "name": "FATE_PER_BLOCK",
      "outputs": [
        {
          "internalType": "uint256",
          "name": "",
          "type": "uint256"
        }
      ],
      "stateMutability": "view",
      "type": "function"
    },
    {
      "inputs": [
        {
          "internalType": "uint256",
          "name": "index",
          "type": "uint256"
        }
      ],
      "name": "getFateAtBlock",
      "outputs": [
        {
          "internalType": "uint256",
          "name": "",
          "type": "uint256"
        }
      ],
      "stateMutability": "view",
      "type": "function"
    },
    {
      "inputs": [
        {
          "internalType": "uint256",
          "name": "_startBlock",
          "type": "uint256"
        },
        {
          "internalType": "uint256",
          "name": "_fromBlock",
          "type": "uint256"
        },
        {
          "internalType": "uint256",
          "name": "_toBlock",
          "type": "uint256"
        }
      ],
      "name": "getFatePerBlock",
      "outputs": [
        {
          "internalType": "uint256",
          "name": "",
          "type": "uint256"
        }
      ],
      "stateMutability": "view",
      "type": "function"
    }
  ],
  "transactionHash": "0x6ff574473ada86d636167f311764f6e30e4e80cf1dc1a57f12a8a08c00cbeba2",
  "args": [],
  "solcInputHash": "b7ddacc7c03173152a976502af032c1a",
  "bytecode": "0x6102406040526801f399b1438a10000060809081526801faad938fcd83000060a052680201c175dc10f6000060c052680208f8df1ac42a000060e052680210304859775e000061010052680217aebf7d0a1400006101205268021f2d36a09cca000061014052680226cf34b69f4100006101605268022e7132cca1b80000610180526802365a3ec783b100006101a05268023e434ac265aa00006101c0526802464fddafb76400006101e05268024e7ff78f78df0000610200526803e733628714200000610220526100d590600090600e6100e8565b503480156100e257600080fd5b50610146565b8260488101928215610121579160200282015b8281111561012157825182906001600160481b03169055916020019190600101906100fb565b5061012d929150610131565b5090565b5b8082111561012d5760008155600101610132565b6102cb806101556000396000f3fe608060405234801561001057600080fd5b506004361061004c5760003560e01c80631f25440f1461005157806344ea9de514610080578063fb4c0e491461009d578063fc47e209146100c6575b600080fd5b61006e6004803603602081101561006757600080fd5b50356100ce565b60408051918252519081900360200190f35b61006e6004803603602081101561009657600080fd5b5035610113565b61006e600480360360608110156100b357600080fd5b5080359060208101359060400135610127565b61006e61025e565b6000600d8210156100fc57600a600083604881106100e857fe5b0154600202816100f457fe5b04905061010e565b6000826048811061010957fe5b015490505b919050565b6000816048811061012057fe5b0154905081565b60008184111561013957506000610257565b83831015610145578392505b8183111561019e576040517f08c379a00000000000000000000000000000000000000000000000000000000081526004018080602001828103825260308152602001806102666030913960400191505060405180910390fd5b62049d408484038190049085840304604882106101ba57604791505b604881106101c6575060475b8082101561023c5762049d40868603819006900360006101e5846100ce565b82029050600184015b8381101561020e576101ff816100ce565b62049d400291506001016101ee565b5062049d40888703069150610222836100ce565b820201868603818161023057fe5b04945050505050610257565b80821461024557fe5b848403610251836100ce565b02925050505b9392505050565b62049d408156fe456d697373696f6e5363686564756c653a3a67657446617465506572426c6f636b3a20494e56414c49445f52414e4745a26469706673582212203c15fe2047ce6601980cbda5bdef8fd9ec8bf953a4f150b61544c587f611d51664736f6c634300060c0033",
  "devdoc": {
    "kind": "dev",
    "methods": {},
    "version": 1
  },
  "userdoc": {
    "kind": "user",
    "methods": {
      "getFatePerBlock(uint256,uint256,uint256)": {
        "notice": "returns the average amount of FATE earned per block over any block period. If spanned over multiple weeks, a weighted average is calculated"
      }
    },
    "version": 1
  },
  "storageLayout": {
    "storage": [
      {
        "astId": 5342,
        "contract": "contracts/fatex/EmissionSchedule.sol:EmissionSchedule",
        "label": "FATE_PER_BLOCK",
        "offset": 0,
        "slot": "0",
        "type": "t_array(t_uint256)72_storage"
      }
    ],
    "types": {
      "t_array(t_uint256)72_storage": {
        "base": "t_uint256",
        "encoding": "inplace",
        "label": "uint256[72]",
        "numberOfBytes": "2304"
      },
      "t_uint256": {
        "encoding": "inplace",
        "label": "uint256",
        "numberOfBytes": "32"
      }
    }
  }
}