{
  "address": "0xB7734155287182814ac4263014807D2505C63A74",
  "abi": [
    {
      "inputs": [
        {
          "internalType": "address",
          "name": "_lpToken",
          "type": "address"
        },
        {
          "internalType": "address",
          "name": "_rewardController",
          "type": "address"
        }
      ],
      "name": "create",
      "outputs": [
        {
          "internalType": "address",
          "name": "",
          "type": "address"
        }
      ],
      "stateMutability": "nonpayable",
      "type": "function"
    }
  ],
  "transactionHash": "0xb55f9abb3b7ded28ebdde4a18b12c359254a606bdec5f40f9325ac5498a9865f",
  "args": [],
  "solcInputHash": "0ece8126b14982d6d8d775ea1585ad62",
  "bytecode": "0x608060405234801561001057600080fd5b50610328806100206000396000f3fe608060405234801561001057600080fd5b506004361061002b5760003560e01c80633e68680a14610030575b600080fd5b61006b6004803603604081101561004657600080fd5b5073ffffffffffffffffffffffffffffffffffffffff81358116916020013516610094565b6040805173ffffffffffffffffffffffffffffffffffffffff9092168252519081900360200190f35b600082826040516100a4906100ec565b73ffffffffffffffffffffffffffffffffffffffff928316815291166020820152604080519182900301906000f0801580156100e4573d6000803e3d6000fd5b509392505050565b6101f9806100fa8339019056fe608060405234801561001057600080fd5b506040516101f93803806101f98339818101604052604081101561003357600080fd5b508051602090910151600180546001600160a01b038085166001600160a01b0319928316811790935560008054918516919092161781556040517f49d0df5d8a50b99470da831b5803d9bef1d23abef9165d3a92936cf1dd9adee79190a25050610157806100a26000396000f3fe608060405234801561001057600080fd5b506004361061002b5760003560e01c806370a0823114610030575b600080fd5b6100636004803603602081101561004657600080fd5b503573ffffffffffffffffffffffffffffffffffffffff16610075565b60408051918252519081900360200190f35b60015460008054604080517f70a0823100000000000000000000000000000000000000000000000000000000815273ffffffffffffffffffffffffffffffffffffffff92831660048201529051929391909116916370a0823191602480820192602092909190829003018186803b1580156100ef57600080fd5b505afa158015610103573d6000803e3d6000fd5b505050506040513d602081101561011957600080fd5b50519291505056fea26469706673582212202bba35ab1c4daee47dae98a35e152bc58d3fe226d6d9559227a140f98a67e7e964736f6c634300060c0033a2646970667358221220ef46eeab665dfa945a7eecb1ccefe031dc54554c01f35fe632548e0490a34baa64736f6c634300060c0033",
  "devdoc": {
    "kind": "dev",
    "methods": {},
    "version": 1
  },
  "userdoc": {
    "kind": "user",
    "methods": {},
    "version": 1
  },
  "storageLayout": {
    "storage": [],
    "types": null
  }
}