{
  "address": "0xfDdE60866508263e30C769e8592BB0f8C3274ba7",
  "abi": [
    {
      "inputs": [
        {
          "internalType": "uint256",
          "name": "_epochStartBlock",
          "type": "uint256"
        },
        {
          "internalType": "uint256",
          "name": "_lockedPercent",
          "type": "uint256"
        }
      ],
      "stateMutability": "nonpayable",
      "type": "constructor"
    },
    {
      "inputs": [],
      "name": "BLOCKS_PER_WEEK",
      "outputs": [
        {
          "internalType": "uint256",
          "name": "",
          "type": "uint256"
        }
      ],
      "stateMutability": "view",
      "type": "function"
    },
    {
      "inputs": [
        {
          "internalType": "uint256",
          "name": "",
          "type": "uint256"
        }
      ],
      "name": "FATE_PER_BLOCK",
      "outputs": [
        {
          "internalType": "uint256",
          "name": "",
          "type": "uint256"
        }
      ],
      "stateMutability": "view",
      "type": "function"
    },
    {
      "inputs": [
        {
          "internalType": "uint256",
          "name": "_startBlock",
          "type": "uint256"
        }
      ],
      "name": "calculateCurrentIndex",
      "outputs": [
        {
          "internalType": "uint256",
          "name": "",
          "type": "uint256"
        }
      ],
      "stateMutability": "view",
      "type": "function"
    },
    {
      "inputs": [],
      "name": "eopochPeriods",
      "outputs": [
        {
          "internalType": "uint256",
          "name": "",
          "type": "uint256"
        }
      ],
      "stateMutability": "view",
      "type": "function"
    },
    {
      "inputs": [],
      "name": "epochEndBlock",
      "outputs": [
        {
          "internalType": "uint256",
          "name": "",
          "type": "uint256"
        }
      ],
      "stateMutability": "view",
      "type": "function"
    },
    {
      "inputs": [],
      "name": "epochStartBlock",
      "outputs": [
        {
          "internalType": "uint256",
          "name": "",
          "type": "uint256"
        }
      ],
      "stateMutability": "view",
      "type": "function"
    },
    {
      "inputs": [
        {
          "internalType": "uint256",
          "name": "index",
          "type": "uint256"
        }
      ],
      "name": "getFateAtIndex",
      "outputs": [
        {
          "internalType": "uint256",
          "name": "",
          "type": "uint256"
        },
        {
          "internalType": "uint256",
          "name": "",
          "type": "uint256"
        }
      ],
      "stateMutability": "view",
      "type": "function"
    },
    {
      "inputs": [
        {
          "internalType": "uint256",
          "name": "_startBlock",
          "type": "uint256"
        },
        {
          "internalType": "uint256",
          "name": "_fromBlock",
          "type": "uint256"
        },
        {
          "internalType": "uint256",
          "name": "_toBlock",
          "type": "uint256"
        }
      ],
      "name": "getFatePerBlock",
      "outputs": [
        {
          "internalType": "uint256",
          "name": "",
          "type": "uint256"
        },
        {
          "internalType": "uint256",
          "name": "",
          "type": "uint256"
        }
      ],
      "stateMutability": "view",
      "type": "function"
    },
    {
      "inputs": [],
      "name": "lockedPercent",
      "outputs": [
        {
          "internalType": "uint256",
          "name": "",
          "type": "uint256"
        }
      ],
      "stateMutability": "view",
      "type": "function"
    },
    {
      "inputs": [],
      "name": "rewardsNumberOfWeeks",
      "outputs": [
        {
          "internalType": "uint256",
          "name": "",
          "type": "uint256"
        }
      ],
      "stateMutability": "view",
      "type": "function"
    }
  ],
  "transactionHash": "0xcdfbdfed8af6b192e89c3734c88db00f8b2760e0d4d021f91985b7aed61af148",
  "args": [
    18575540,
    "920000000000000000"
  ],
  "solcInputHash": "422e25500d14a46db85cada408dd301f",
  "bytecode": "0x6108206040526801f399b1438a10000060c09081526801faad938fcd83000060e052680201c175dc10f6000061010052680208f8df1ac42a000061012052680210304859775e000061014052680217aebf7d0a1400006101605268021f2d36a09cca00006101805267bcff972962e076006101a05260006101c08190526101e08190526102008190526102208190526102408190526102608190526102808190526102a08190526102c08190526102e08190526103008190526103208190526103408190526103608190526103808190526103a08190526103c08190526103e08190526104008190526104208190526104408190526104608190526104808190526104a08190526104c08190526104e08190526105008190526105208190526105408190526105608190526105808190526105a08190526105c08190526105e08190526106008190526106208190526106408190526106608190526106808190526106a08190526106c08190526106e08190526107008190526107208190526107408190526107608190526107808190526107a08190526107c08190526107e08190526108008190526101b391603b610245565b503480156101c057600080fd5b5060405161077b38038061077b833981810160405260408110156101e357600080fd5b508051602090910151670de0b6b3a764000081106102325760405162461bcd60e51b815260040180806020018281038252602c81526020018061074f602c913960400191505060405180910390fd5b5060808190526249d4000160a0526102a3565b826048810192821561027e579160200282015b8281111561027e57825182906001600160481b0316905591602001919060010190610258565b5061028a92915061028e565b5090565b5b8082111561028a576000815560010161028f565b60805160a0516104896102c6600039806101df5250806101a052506104896000f3fe608060405234801561001057600080fd5b50600436106100be5760003560e01c8063c0f34ddc11610076578063f679998c1161005b578063f679998c14610150578063fb4c0e491461016d578063fc47e20914610196576100be565b8063c0f34ddc14610140578063db81dfcc14610148576100be565b806344ea9de5116100a757806344ea9de5146100e55780634e3b8480146101025780639d33918e1461010a576100be565b80633ed55b7b146100c3578063422955a2146100dd575b600080fd5b6100cb61019e565b60408051918252519081900360200190f35b6100cb6101c2565b6100cb600480360360208110156100fb57600080fd5b50356101c9565b6100cb6101dd565b6101276004803603602081101561012057600080fd5b5035610201565b6040805192835260208301919091528051918290030190f35b6100cb610276565b6100cb61027b565b6100cb6004803603602081101561016657600080fd5b5035610287565b6101276004803603606081101561018357600080fd5b508035906020810135906040013561029e565b6100cb61041c565b7f000000000000000000000000000000000000000000000000000000000000000081565b6249d40081565b600081604881106101d657fe5b0154905081565b7f000000000000000000000000000000000000000000000000000000000000000081565b600080600883101561026a57670de0b6b3a7640000670cc47f20295c00006000856048811061022c57fe5b0154028161023657fe5b04670de0b6b3a764000067011c37937e0800006000866048811061025657fe5b0154028161026057fe5b0491509150610271565b5060009050805b915091565b604890565b670cc47f20295c000081565b600062049d408243038161029757fe5b0492915050565b600080828511806102ae57508284145b156102be57506000905080610414565b848410156102ca578493505b82841115610323576040517f08c379a00000000000000000000000000000000000000000000000000000000081526004018080602001828103825260308152602001806104246030913960400191505060405180910390fd5b63014c3a00850180851061033e576000809250925050610414565b80841061034c576001810393505b62049d408686038190049087860304808210156103e95762049d40888803819006900360008061037b85610201565b908402925083029050600185015b848110156103b95760008061039d83610201565b62049d4091820296909601950293909301925050600101610389565b5062049d408b8a030692506000806103d086610201565b9086029490940199505050910201935061041492505050565b8082146103f257fe5b6000806103fe84610201565b8a8a039182029850029550610414945050505050565b935093915050565b62049d408156fe5265776172645363686564756c6556333a3a67657446617465506572426c6f636b3a20494e56414c49445f52414e4745a26469706673582212206b3d7d52969a559a439d30d14649a99e45a8f083066fffd506d0b9ecbc99aa0964736f6c634300060c00335265776172645363686564756c6556333a3a436f6e74727563746f723a20696e76616c696420706172616d73",
  "devdoc": {
    "kind": "dev",
    "methods": {
      "getFateAtIndex(uint256)": {
        "params": {
          "index": "The week at which the amount of FATE per block should be rewarded. Index starts at 0, meaning index              1 is actually week 2. Index 12 is week 13."
        }
      }
    },
    "version": 1
  },
  "userdoc": {
    "kind": "user",
    "methods": {
      "FATE_PER_BLOCK(uint256)": {
        "notice": "This is the emission schedule for each block for a given week. These numbers represent how much FATE is         rewarded per block. Each index represents a week. The starting day/week, according to the Reward         Controller was 2021-08-26T19:43:45.000Z (UTC time). Meaning, week 2 started on 2021-09-02T19:43:45.000Z         (UTC time)."
      },
      "getFatePerBlock(uint256,uint256,uint256)": {
        "notice": "returns the average amount of FATE earned per block over any block period. If spanned over multiple weeks, a weighted average is calculated. Both _fromBlock and _toBlock are inclusive"
      }
    },
    "version": 1
  },
  "storageLayout": {
    "storage": [
      {
        "astId": 15157,
        "contract": "contracts/fatex/v3/RewardScheduleV3.sol:RewardScheduleV3",
        "label": "FATE_PER_BLOCK",
        "offset": 0,
        "slot": "0",
        "type": "t_array(t_uint256)72_storage"
      }
    ],
    "types": {
      "t_array(t_uint256)72_storage": {
        "base": "t_uint256",
        "encoding": "inplace",
        "label": "uint256[72]",
        "numberOfBytes": "2304"
      },
      "t_uint256": {
        "encoding": "inplace",
        "label": "uint256",
        "numberOfBytes": "32"
      }
    }
  }
}