{
  "address": "0x1d01f69c0F9E3180bAE1083f1a906a10692342bE",
  "abi": [
    {
      "inputs": [
        {
          "internalType": "contract FateToken",
          "name": "_fate",
          "type": "address"
        }
      ],
      "stateMutability": "nonpayable",
      "type": "constructor"
    },
    {
      "anonymous": false,
      "inputs": [
        {
          "indexed": true,
          "internalType": "address",
          "name": "owner",
          "type": "address"
        },
        {
          "indexed": true,
          "internalType": "address",
          "name": "spender",
          "type": "address"
        },
        {
          "indexed": false,
          "internalType": "uint256",
          "name": "value",
          "type": "uint256"
        }
      ],
      "name": "Approval",
      "type": "event"
    },
    {
      "anonymous": false,
      "inputs": [
        {
          "indexed": true,
          "internalType": "address",
          "name": "delegator",
          "type": "address"
        },
        {
          "indexed": true,
          "internalType": "address",
          "name": "fromDelegate",
          "type": "address"
        },
        {
          "indexed": true,
          "internalType": "address",
          "name": "toDelegate",
          "type": "address"
        }
      ],
      "name": "DelegateChanged",
      "type": "event"
    },
    {
      "anonymous": false,
      "inputs": [
        {
          "indexed": true,
          "internalType": "address",
          "name": "delegate",
          "type": "address"
        },
        {
          "indexed": false,
          "internalType": "uint256",
          "name": "previousBalance",
          "type": "uint256"
        },
        {
          "indexed": false,
          "internalType": "uint256",
          "name": "newBalance",
          "type": "uint256"
        }
      ],
      "name": "DelegateVotesChanged",
      "type": "event"
    },
    {
      "anonymous": false,
      "inputs": [
        {
          "indexed": true,
          "internalType": "address",
          "name": "previousOwner",
          "type": "address"
        },
        {
          "indexed": true,
          "internalType": "address",
          "name": "newOwner",
          "type": "address"
        }
      ],
      "name": "OwnershipTransferred",
      "type": "event"
    },
    {
      "anonymous": false,
      "inputs": [
        {
          "indexed": true,
          "internalType": "address",
          "name": "from",
          "type": "address"
        },
        {
          "indexed": true,
          "internalType": "address",
          "name": "to",
          "type": "address"
        },
        {
          "indexed": false,
          "internalType": "uint256",
          "name": "value",
          "type": "uint256"
        }
      ],
      "name": "Transfer",
      "type": "event"
    },
    {
      "inputs": [],
      "name": "DELEGATION_TYPEHASH",
      "outputs": [
        {
          "internalType": "bytes32",
          "name": "",
          "type": "bytes32"
        }
      ],
      "stateMutability": "view",
      "type": "function"
    },
    {
      "inputs": [],
      "name": "DOMAIN_TYPEHASH",
      "outputs": [
        {
          "internalType": "bytes32",
          "name": "",
          "type": "bytes32"
        }
      ],
      "stateMutability": "view",
      "type": "function"
    },
    {
      "inputs": [
        {
          "internalType": "address",
          "name": "owner",
          "type": "address"
        },
        {
          "internalType": "address",
          "name": "spender",
          "type": "address"
        }
      ],
      "name": "allowance",
      "outputs": [
        {
          "internalType": "uint256",
          "name": "",
          "type": "uint256"
        }
      ],
      "stateMutability": "view",
      "type": "function"
    },
    {
      "inputs": [
        {
          "internalType": "address",
          "name": "spender",
          "type": "address"
        },
        {
          "internalType": "uint256",
          "name": "amount",
          "type": "uint256"
        }
      ],
      "name": "approve",
      "outputs": [
        {
          "internalType": "bool",
          "name": "",
          "type": "bool"
        }
      ],
      "stateMutability": "nonpayable",
      "type": "function"
    },
    {
      "inputs": [
        {
          "internalType": "address",
          "name": "account",
          "type": "address"
        }
      ],
      "name": "balanceOf",
      "outputs": [
        {
          "internalType": "uint256",
          "name": "",
          "type": "uint256"
        }
      ],
      "stateMutability": "view",
      "type": "function"
    },
    {
      "inputs": [
        {
          "internalType": "address",
          "name": "",
          "type": "address"
        },
        {
          "internalType": "uint32",
          "name": "",
          "type": "uint32"
        }
      ],
      "name": "checkpoints",
      "outputs": [
        {
          "internalType": "uint32",
          "name": "fromBlock",
          "type": "uint32"
        },
        {
          "internalType": "uint256",
          "name": "votes",
          "type": "uint256"
        }
      ],
      "stateMutability": "view",
      "type": "function"
    },
    {
      "inputs": [],
      "name": "decimals",
      "outputs": [
        {
          "internalType": "uint8",
          "name": "",
          "type": "uint8"
        }
      ],
      "stateMutability": "view",
      "type": "function"
    },
    {
      "inputs": [
        {
          "internalType": "address",
          "name": "spender",
          "type": "address"
        },
        {
          "internalType": "uint256",
          "name": "subtractedValue",
          "type": "uint256"
        }
      ],
      "name": "decreaseAllowance",
      "outputs": [
        {
          "internalType": "bool",
          "name": "",
          "type": "bool"
        }
      ],
      "stateMutability": "nonpayable",
      "type": "function"
    },
    {
      "inputs": [
        {
          "internalType": "address",
          "name": "delegatee",
          "type": "address"
        }
      ],
      "name": "delegate",
      "outputs": [],
      "stateMutability": "nonpayable",
      "type": "function"
    },
    {
      "inputs": [
        {
          "internalType": "address",
          "name": "delegatee",
          "type": "address"
        },
        {
          "internalType": "uint256",
          "name": "nonce",
          "type": "uint256"
        },
        {
          "internalType": "uint256",
          "name": "expiry",
          "type": "uint256"
        },
        {
          "internalType": "uint8",
          "name": "v",
          "type": "uint8"
        },
        {
          "internalType": "bytes32",
          "name": "r",
          "type": "bytes32"
        },
        {
          "internalType": "bytes32",
          "name": "s",
          "type": "bytes32"
        }
      ],
      "name": "delegateBySig",
      "outputs": [],
      "stateMutability": "nonpayable",
      "type": "function"
    },
    {
      "inputs": [
        {
          "internalType": "address",
          "name": "delegator",
          "type": "address"
        }
      ],
      "name": "delegates",
      "outputs": [
        {
          "internalType": "address",
          "name": "",
          "type": "address"
        }
      ],
      "stateMutability": "view",
      "type": "function"
    },
    {
      "inputs": [
        {
          "internalType": "uint256",
          "name": "_amount",
          "type": "uint256"
        }
      ],
      "name": "enter",
      "outputs": [],
      "stateMutability": "nonpayable",
      "type": "function"
    },
    {
      "inputs": [],
      "name": "fate",
      "outputs": [
        {
          "internalType": "contract FateToken",
          "name": "",
          "type": "address"
        }
      ],
      "stateMutability": "view",
      "type": "function"
    },
    {
      "inputs": [
        {
          "internalType": "address",
          "name": "account",
          "type": "address"
        }
      ],
      "name": "getCurrentVotes",
      "outputs": [
        {
          "internalType": "uint256",
          "name": "",
          "type": "uint256"
        }
      ],
      "stateMutability": "view",
      "type": "function"
    },
    {
      "inputs": [
        {
          "internalType": "address",
          "name": "account",
          "type": "address"
        },
        {
          "internalType": "uint256",
          "name": "blockNumber",
          "type": "uint256"
        }
      ],
      "name": "getPriorVotes",
      "outputs": [
        {
          "internalType": "uint256",
          "name": "",
          "type": "uint256"
        }
      ],
      "stateMutability": "view",
      "type": "function"
    },
    {
      "inputs": [
        {
          "internalType": "address",
          "name": "spender",
          "type": "address"
        },
        {
          "internalType": "uint256",
          "name": "addedValue",
          "type": "uint256"
        }
      ],
      "name": "increaseAllowance",
      "outputs": [
        {
          "internalType": "bool",
          "name": "",
          "type": "bool"
        }
      ],
      "stateMutability": "nonpayable",
      "type": "function"
    },
    {
      "inputs": [
        {
          "internalType": "uint256",
          "name": "_share",
          "type": "uint256"
        }
      ],
      "name": "leave",
      "outputs": [],
      "stateMutability": "nonpayable",
      "type": "function"
    },
    {
      "inputs": [
        {
          "internalType": "address",
          "name": "_to",
          "type": "address"
        },
        {
          "internalType": "uint256",
          "name": "_amount",
          "type": "uint256"
        }
      ],
      "name": "mint",
      "outputs": [],
      "stateMutability": "nonpayable",
      "type": "function"
    },
    {
      "inputs": [],
      "name": "name",
      "outputs": [
        {
          "internalType": "string",
          "name": "",
          "type": "string"
        }
      ],
      "stateMutability": "view",
      "type": "function"
    },
    {
      "inputs": [
        {
          "internalType": "address",
          "name": "",
          "type": "address"
        }
      ],
      "name": "nonces",
      "outputs": [
        {
          "internalType": "uint256",
          "name": "",
          "type": "uint256"
        }
      ],
      "stateMutability": "view",
      "type": "function"
    },
    {
      "inputs": [
        {
          "internalType": "address",
          "name": "",
          "type": "address"
        }
      ],
      "name": "numCheckpoints",
      "outputs": [
        {
          "internalType": "uint32",
          "name": "",
          "type": "uint32"
        }
      ],
      "stateMutability": "view",
      "type": "function"
    },
    {
      "inputs": [],
      "name": "owner",
      "outputs": [
        {
          "internalType": "address",
          "name": "",
          "type": "address"
        }
      ],
      "stateMutability": "view",
      "type": "function"
    },
    {
      "inputs": [],
      "name": "renounceOwnership",
      "outputs": [],
      "stateMutability": "nonpayable",
      "type": "function"
    },
    {
      "inputs": [],
      "name": "symbol",
      "outputs": [
        {
          "internalType": "string",
          "name": "",
          "type": "string"
        }
      ],
      "stateMutability": "view",
      "type": "function"
    },
    {
      "inputs": [],
      "name": "totalSupply",
      "outputs": [
        {
          "internalType": "uint256",
          "name": "",
          "type": "uint256"
        }
      ],
      "stateMutability": "view",
      "type": "function"
    },
    {
      "inputs": [
        {
          "internalType": "address",
          "name": "recipient",
          "type": "address"
        },
        {
          "internalType": "uint256",
          "name": "amount",
          "type": "uint256"
        }
      ],
      "name": "transfer",
      "outputs": [
        {
          "internalType": "bool",
          "name": "",
          "type": "bool"
        }
      ],
      "stateMutability": "nonpayable",
      "type": "function"
    },
    {
      "inputs": [
        {
          "internalType": "address",
          "name": "sender",
          "type": "address"
        },
        {
          "internalType": "address",
          "name": "recipient",
          "type": "address"
        },
        {
          "internalType": "uint256",
          "name": "amount",
          "type": "uint256"
        }
      ],
      "name": "transferFrom",
      "outputs": [
        {
          "internalType": "bool",
          "name": "",
          "type": "bool"
        }
      ],
      "stateMutability": "nonpayable",
      "type": "function"
    },
    {
      "inputs": [
        {
          "internalType": "address",
          "name": "newOwner",
          "type": "address"
        }
      ],
      "name": "transferOwnership",
      "outputs": [],
      "stateMutability": "nonpayable",
      "type": "function"
    }
  ],
  "transactionHash": "0x34dc45e1025494bff3dd0610214bff0ce3430dc4fc35b19d485ea2428e70de0f",
  "args": [
    "0xF16BF531e77dfF1A1467D21a53a6bd31A8b3b6D7"
  ],
  "solcInputHash": "48656732cd421df8bd4098193b7342e4",
  "bytecode": "0x60806040523480156200001157600080fd5b506040516200265b3803806200265b833981810160405260208110156200003757600080fd5b50516040805180820182526008815267464154457844414f60c01b6020828101918252835180850190945260048452634641544560e01b9084015281519192916200008591600391620002c5565b5080516200009b906004906020840190620002c5565b50506005805460ff19166012179055506000620000b76200014b565b60058054610100600160a81b0319166101006001600160a01b03841690810291909117909155604051919250906000907f8be0079c531659141344cd1fd0a4f28419497f9722a3daafe3b4186f6b6457e0908290a35062000125336b02df458b2c635dcf55e000006200014f565b600a80546001600160a01b0319166001600160a01b039290921691909117905562000361565b3390565b6001600160a01b038216620001ab576040805162461bcd60e51b815260206004820152601f60248201527f45524332303a206d696e7420746f20746865207a65726f206164647265737300604482015290519081900360640190fd5b620001b9600083836200025e565b620001d5816002546200026360201b6200161a1790919060201c565b6002556001600160a01b03821660009081526020818152604090912054620002089183906200161a62000263821b17901c565b6001600160a01b0383166000818152602081815260408083209490945583518581529351929391927fddf252ad1be2c89b69c2b068fc378daa952ba7f163c4a11628f55a4df523b3ef9281900390910190a35050565b505050565b600082820183811015620002be576040805162461bcd60e51b815260206004820152601b60248201527f536166654d6174683a206164646974696f6e206f766572666c6f770000000000604482015290519081900360640190fd5b9392505050565b828054600181600116156101000203166002900490600052602060002090601f016020900481019282601f106200030857805160ff191683800117855562000338565b8280016001018555821562000338579182015b82811115620003385782518255916020019190600101906200031b565b50620003469291506200034a565b5090565b5b808211156200034657600081556001016200034b565b6122ea80620003716000396000f3fe608060405234801561001057600080fd5b50600436106101c45760003560e01c8063715018a6116100f9578063a9059cbb11610097578063dd62ed3e11610071578063dd62ed3e14610594578063e7a324dc146105c2578063f1127ed8146105ca578063f2fde38b1461061c576101c4565b8063a9059cbb146104fb578063b4b5ea5714610527578063c3cda5201461054d576101c4565b80638da5cb5b116100d35780638da5cb5b146104a257806395d89b41146104aa578063a457c2d7146104b2578063a59f3e0c146104de576101c4565b8063715018a614610448578063782d6fe1146104505780637ecebe001461047c576101c4565b806339509351116101665780635c19a95c116101405780635c19a95c146103a057806367dfd4c9146103c65780636fcfff45146103e357806370a0823114610422576101c4565b8063395093511461032057806340c10f191461034c578063587cde1e1461037a576101c4565b80631c703655116101a25780631c703655146102a057806320606b70146102c457806323b872dd146102cc578063313ce56714610302576101c4565b806306fdde03146101c9578063095ea7b31461024657806318160ddd14610286575b600080fd5b6101d1610642565b6040805160208082528351818301528351919283929083019185019080838360005b8381101561020b5781810151838201526020016101f3565b50505050905090810190601f1680156102385780820380516001836020036101000a031916815260200191505b509250505060405180910390f35b6102726004803603604081101561025c57600080fd5b506001600160a01b038135169060200135610679565b604080519115158252519081900360200190f35b61028e610697565b60408051918252519081900360200190f35b6102a861069d565b604080516001600160a01b039092168252519081900360200190f35b61028e6106ac565b610272600480360360608110156102e257600080fd5b506001600160a01b038135811691602081013590911690604001356106d0565b61030a610757565b6040805160ff9092168252519081900360200190f35b6102726004803603604081101561033657600080fd5b506001600160a01b038135169060200135610760565b6103786004803603604081101561036257600080fd5b506001600160a01b0381351690602001356107ae565b005b6102a86004803603602081101561039057600080fd5b50356001600160a01b0316610855565b610378600480360360208110156103b657600080fd5b50356001600160a01b0316610873565b610378600480360360208110156103dc57600080fd5b5035610880565b610409600480360360208110156103f957600080fd5b50356001600160a01b0316610a1b565b6040805163ffffffff9092168252519081900360200190f35b61028e6004803603602081101561043857600080fd5b50356001600160a01b0316610a33565b610378610a4e565b61028e6004803603604081101561046657600080fd5b506001600160a01b038135169060200135610b29565b61028e6004803603602081101561049257600080fd5b50356001600160a01b0316610d31565b6102a8610d43565b6101d1610d57565b610272600480360360408110156104c857600080fd5b506001600160a01b038135169060200135610d8e565b610378600480360360208110156104f457600080fd5b5035610df6565b6102726004803603604081101561051157600080fd5b506001600160a01b038135169060200135611125565b61028e6004803603602081101561053d57600080fd5b50356001600160a01b0316611139565b610378600480360360c081101561056357600080fd5b506001600160a01b038135169060208101359060408101359060ff6060820135169060808101359060a0013561119d565b61028e600480360360408110156105aa57600080fd5b506001600160a01b0381358116916020013516611467565b61028e611492565b6105fc600480360360408110156105e057600080fd5b5080356001600160a01b0316906020013563ffffffff166114b6565b6040805163ffffffff909316835260208301919091528051918290030190f35b6103786004803603602081101561063257600080fd5b50356001600160a01b03166114e3565b60408051808201909152600f81527f78464154457844414f20546f6b656e0000000000000000000000000000000000602082015290565b600061068d610686611674565b8484611678565b5060015b92915050565b60025490565b600a546001600160a01b031681565b7f8cad95687ba82c2ce50e74f7b754645e5117c3a5bec8151c0726d5857980a86681565b60006106dd848484611764565b61074d846106e9611674565b61074885604051806060016040528060288152602001612147602891396001600160a01b038a16600090815260016020526040812090610727611674565b6001600160a01b0316815260208101919091526040016000205491906118bf565b611678565b5060019392505050565b60055460ff1690565b600061068d61076d611674565b84610748856001600061077e611674565b6001600160a01b03908116825260208083019390935260409182016000908120918c16815292529020549061161a565b6107b6611674565b6001600160a01b03166107c7610d43565b6001600160a01b031614610822576040805162461bcd60e51b815260206004820181905260248201527f4f776e61626c653a2063616c6c6572206973206e6f7420746865206f776e6572604482015290519081900360640190fd5b61082c8282611956565b6001600160a01b03808316600090815260066020526040812054610851921683611a46565b5050565b6001600160a01b039081166000908152600660205260409020541690565b61087d3382611b88565b50565b600061088a610697565b600a54604080517f70a082310000000000000000000000000000000000000000000000000000000081523060048201529051929350600092610937928592610931926001600160a01b03909216916370a0823191602480820192602092909190829003018186803b1580156108fe57600080fd5b505afa158015610912573d6000803e3d6000fd5b505050506040513d602081101561092857600080fd5b50518690611c35565b90611c8e565b90506109433384611cf5565b3360009081526006602052604081205461097d91906001600160a01b0316610978856109318861097285611139565b90611c35565b611a46565b600a54604080517fa9059cbb0000000000000000000000000000000000000000000000000000000081523360048201526024810184905290516001600160a01b039092169163a9059cbb916044808201926020929091908290030181600087803b1580156109ea57600080fd5b505af11580156109fe573d6000803e3d6000fd5b505050506040513d6020811015610a1457600080fd5b5050505050565b60086020526000908152604090205463ffffffff1681565b6001600160a01b031660009081526020819052604090205490565b610a56611674565b6001600160a01b0316610a67610d43565b6001600160a01b031614610ac2576040805162461bcd60e51b815260206004820181905260248201527f4f776e61626c653a2063616c6c6572206973206e6f7420746865206f776e6572604482015290519081900360640190fd5b60055460405160009161010090046001600160a01b0316907f8be0079c531659141344cd1fd0a4f28419497f9722a3daafe3b4186f6b6457e0908390a3600580547fffffffffffffffffffffff0000000000000000000000000000000000000000ff169055565b6000438210610b695760405162461bcd60e51b815260040180806020018281038252602c815260200180612204602c913960400191505060405180910390fd5b6001600160a01b03831660009081526008602052604090205463ffffffff1680610b97576000915050610691565b6001600160a01b038416600090815260076020908152604080832063ffffffff600019860181168552925290912054168310610c06576001600160a01b03841660009081526007602090815260408083206000199490940163ffffffff16835292905220600101549050610691565b6001600160a01b038416600090815260076020908152604080832083805290915290205463ffffffff16831015610c41576000915050610691565b600060001982015b8163ffffffff168163ffffffff161115610cfa57600282820363ffffffff16048103610c73612030565b506001600160a01b038716600090815260076020908152604080832063ffffffff808616855290835292819020815180830190925280549093168082526001909301549181019190915290871415610cd5576020015194506106919350505050565b805163ffffffff16871115610cec57819350610cf3565b6001820392505b5050610c49565b506001600160a01b038516600090815260076020908152604080832063ffffffff9094168352929052206001015491505092915050565b60096020526000908152604090205481565b60055461010090046001600160a01b031690565b60408051808201909152600581527f7846415445000000000000000000000000000000000000000000000000000000602082015290565b600061068d610d9b611674565b84610748856040518060600160405280602581526020016122906025913960016000610dc5611674565b6001600160a01b03908116825260208083019390935260409182016000908120918d168152925290205491906118bf565b600a54604080517f70a0823100000000000000000000000000000000000000000000000000000000815230600482015290516000926001600160a01b0316916370a08231916024808301926020929190829003018186803b158015610e5a57600080fd5b505afa158015610e6e573d6000803e3d6000fd5b505050506040513d6020811015610e8457600080fd5b505190506000610e92610697565b336000908152600660205260409020549091506001600160a01b031661102d57600a54604080517f587cde1e00000000000000000000000000000000000000000000000000000000815233600482015290516000926001600160a01b03169163587cde1e916024808301926020929190829003018186803b158015610f1657600080fd5b505afa158015610f2a573d6000803e3d6000fd5b505050506040513d6020811015610f4057600080fd5b50516001600160a01b031614610fe557600a54604080517f587cde1e00000000000000000000000000000000000000000000000000000000815233600482015290516001600160a01b039092169163587cde1e91602480820192602092909190829003018186803b158015610fb457600080fd5b505afa158015610fc8573d6000803e3d6000fd5b505050506040513d6020811015610fde57600080fd5b5051610fe7565b335b33600090815260066020526040902080547fffffffffffffffffffffffff0000000000000000000000000000000000000000166001600160a01b03929092169190911790555b801580611038575081155b15611070576110473384611956565b3360009081526006602052604081205461106b91906001600160a01b031685611a46565b6110b2565b6000611080836109318685611c35565b905061108c3382611956565b336000908152600660205260408120546110b091906001600160a01b031683611a46565b505b600a54604080517f23b872dd0000000000000000000000000000000000000000000000000000000081523360048201523060248201526044810186905290516001600160a01b03909216916323b872dd916064808201926020929091908290030181600087803b1580156109ea57600080fd5b600061068d611132611674565b8484611764565b6001600160a01b03811660009081526008602052604081205463ffffffff1680611164576000611196565b6001600160a01b038316600090815260076020908152604080832063ffffffff60001986011684529091529020600101545b9392505050565b60007f8cad95687ba82c2ce50e74f7b754645e5117c3a5bec8151c0726d5857980a8666111c8610642565b805190602001206111d7611df1565b60408051602080820195909552808201939093526060830191909152306080808401919091528151808403909101815260a0830182528051908401207fe48329057bfd03d55e49b547132e39cffd9c1820ad7b9d4c5307691425d15adf60c08401526001600160a01b038b1660e084015261010083018a90526101208084018a905282518085039091018152610140840183528051908501207f19010000000000000000000000000000000000000000000000000000000000006101608501526101628401829052610182808501829052835180860390910181526101a285018085528151918701919091206000918290526101c2860180865281905260ff8b166101e287015261020286018a905261022286018990529351929650909492939092600192610242808401937fffffffffffffffffffffffffffffffffffffffffffffffffffffffffffffffe08301929081900390910190855afa158015611343573d6000803e3d6000fd5b50506040517fffffffffffffffffffffffffffffffffffffffffffffffffffffffffffffffe001519150506001600160a01b0381166113b35760405162461bcd60e51b815260040180806020018281038252602b8152602001806120fb602b913960400191505060405180910390fd5b6001600160a01b038116600090815260096020526040902080546001810190915589146114115760405162461bcd60e51b81526004018080602001828103825260278152602001806122696027913960400191505060405180910390fd5b874211156114505760405162461bcd60e51b815260040180806020018281038252602b81526020018061216f602b913960400191505060405180910390fd5b61145a818b611b88565b505050505b505050505050565b6001600160a01b03918216600090815260016020908152604080832093909416825291909152205490565b7fe48329057bfd03d55e49b547132e39cffd9c1820ad7b9d4c5307691425d15adf81565b60076020908152600092835260408084209091529082529020805460019091015463ffffffff9091169082565b6114eb611674565b6001600160a01b03166114fc610d43565b6001600160a01b031614611557576040805162461bcd60e51b815260206004820181905260248201527f4f776e61626c653a2063616c6c6572206973206e6f7420746865206f776e6572604482015290519081900360640190fd5b6001600160a01b03811661159c5760405162461bcd60e51b815260040180806020018281038252602681526020018061208d6026913960400191505060405180910390fd5b6005546040516001600160a01b0380841692610100900416907f8be0079c531659141344cd1fd0a4f28419497f9722a3daafe3b4186f6b6457e090600090a3600580546001600160a01b03909216610100027fffffffffffffffffffffff0000000000000000000000000000000000000000ff909216919091179055565b600082820183811015611196576040805162461bcd60e51b815260206004820152601b60248201527f536166654d6174683a206164646974696f6e206f766572666c6f770000000000604482015290519081900360640190fd5b3390565b6001600160a01b0383166116bd5760405162461bcd60e51b81526004018080602001828103825260248152602001806121e06024913960400191505060405180910390fd5b6001600160a01b0382166117025760405162461bcd60e51b81526004018080602001828103825260228152602001806120b36022913960400191505060405180910390fd5b6001600160a01b03808416600081815260016020908152604080832094871680845294825291829020859055815185815291517f8c5be1e5ebec7d5bd14f71427d1e84f3dd0314c0f7b2291e5b200ac8c7c3b9259281900390910190a3505050565b6001600160a01b0383166117a95760405162461bcd60e51b81526004018080602001828103825260258152602001806121bb6025913960400191505060405180910390fd5b6001600160a01b0382166117ee5760405162461bcd60e51b81526004018080602001828103825260238152602001806120486023913960400191505060405180910390fd5b6117f9838383611b83565b611836816040518060600160405280602681526020016120d5602691396001600160a01b03861660009081526020819052604090205491906118bf565b6001600160a01b038085166000908152602081905260408082209390935590841681522054611865908261161a565b6001600160a01b038084166000818152602081815260409182902094909455805185815290519193928716927fddf252ad1be2c89b69c2b068fc378daa952ba7f163c4a11628f55a4df523b3ef92918290030190a3505050565b6000818484111561194e5760405162461bcd60e51b81526004018080602001828103825283818151815260200191508051906020019080838360005b838110156119135781810151838201526020016118fb565b50505050905090810190601f1680156119405780820380516001836020036101000a031916815260200191505b509250505060405180910390fd5b505050900390565b6001600160a01b0382166119b1576040805162461bcd60e51b815260206004820152601f60248201527f45524332303a206d696e7420746f20746865207a65726f206164647265737300604482015290519081900360640190fd5b6119bd60008383611b83565b6002546119ca908261161a565b6002556001600160a01b0382166000908152602081905260409020546119f0908261161a565b6001600160a01b0383166000818152602081815260408083209490945583518581529351929391927fddf252ad1be2c89b69c2b068fc378daa952ba7f163c4a11628f55a4df523b3ef9281900390910190a35050565b816001600160a01b0316836001600160a01b031614158015611a685750600081115b15611b83576001600160a01b03831615611afa576001600160a01b03831660009081526008602052604081205463ffffffff169081611aa8576000611ada565b6001600160a01b038516600090815260076020908152604080832063ffffffff60001987011684529091529020600101545b90506000611ae88285611df5565b9050611af686848484611e52565b5050505b6001600160a01b03821615611b83576001600160a01b03821660009081526008602052604081205463ffffffff169081611b35576000611b67565b6001600160a01b038416600090815260076020908152604080832063ffffffff60001987011684529091529020600101545b90506000611b75828561161a565b905061145f85848484611e52565b505050565b6001600160a01b0380831660009081526006602052604081205490911690611baf84610a33565b6001600160a01b0385811660008181526006602052604080822080547fffffffffffffffffffffffff000000000000000000000000000000000000000016898616908117909155905194955093928616927f3134e8a2e6d97e929a7e54011ea5485d7d196dd5f0ba4d4ef95803e8e3fc257f9190a4611c2f828483611a46565b50505050565b600082611c4457506000610691565b82820282848281611c5157fe5b04146111965760405162461bcd60e51b81526004018080602001828103825260218152602001806121266021913960400191505060405180910390fd5b6000808211611ce4576040805162461bcd60e51b815260206004820152601a60248201527f536166654d6174683a206469766973696f6e206279207a65726f000000000000604482015290519081900360640190fd5b818381611ced57fe5b049392505050565b6001600160a01b038216611d3a5760405162461bcd60e51b815260040180806020018281038252602181526020018061219a6021913960400191505060405180910390fd5b611d4682600083611b83565b611d838160405180606001604052806022815260200161206b602291396001600160a01b03851660009081526020819052604090205491906118bf565b6001600160a01b038316600090815260208190526040902055600254611da99082611df5565b6002556040805182815290516000916001600160a01b038516917fddf252ad1be2c89b69c2b068fc378daa952ba7f163c4a11628f55a4df523b3ef9181900360200190a35050565b4690565b600082821115611e4c576040805162461bcd60e51b815260206004820152601e60248201527f536166654d6174683a207375627472616374696f6e206f766572666c6f770000604482015290519081900360640190fd5b50900390565b6000611e764360405180606001604052806039815260200161223060399139611fd2565b905060008463ffffffff16118015611ebf57506001600160a01b038516600090815260076020908152604080832063ffffffff6000198901811685529252909120548282169116145b15611efc576001600160a01b038516600090815260076020908152604080832063ffffffff60001989011684529091529020600101829055611f88565b60408051808201825263ffffffff808416825260208083018681526001600160a01b038a166000818152600784528681208b861682528452868120955186549086167fffffffffffffffffffffffffffffffffffffffffffffffffffffffff00000000918216178755925160019687015590815260089092529390208054928801909116919092161790555b604080518481526020810184905281516001600160a01b038816927fdec2bacdd2f05b59de34da9b523dff8be42e5e38e818c82fdb0bae774387a724928290030190a25050505050565b60008164010000000084106120285760405162461bcd60e51b81526020600482018181528351602484015283519092839260449091019190850190808383600083156119135781810151838201526020016118fb565b509192915050565b60408051808201909152600080825260208201529056fe45524332303a207472616e7366657220746f20746865207a65726f206164647265737345524332303a206275726e20616d6f756e7420657863656564732062616c616e63654f776e61626c653a206e6577206f776e657220697320746865207a65726f206164647265737345524332303a20617070726f766520746f20746865207a65726f206164647265737345524332303a207472616e7366657220616d6f756e7420657863656564732062616c616e636546617465546f6b656e3a3a64656c656761746542795369673a20696e76616c6964207369676e6174757265536166654d6174683a206d756c7469706c69636174696f6e206f766572666c6f7745524332303a207472616e7366657220616d6f756e74206578636565647320616c6c6f77616e636546617465546f6b656e3a3a64656c656761746542795369673a207369676e6174757265206578706972656445524332303a206275726e2066726f6d20746865207a65726f206164647265737345524332303a207472616e736665722066726f6d20746865207a65726f206164647265737345524332303a20617070726f76652066726f6d20746865207a65726f206164647265737346617465546f6b656e3a3a6765745072696f72566f7465733a206e6f74207965742064657465726d696e656446617465546f6b656e3a3a5f7772697465436865636b706f696e743a20626c6f636b206e756d6265722065786365656473203332206269747346617465546f6b656e3a3a64656c656761746542795369673a20696e76616c6964206e6f6e636545524332303a2064656372656173656420616c6c6f77616e63652062656c6f77207a65726fa26469706673582212203879d6bc81605038c71b4527899b3623c8ace4ca3f465054ddc946e8ea57982864736f6c634300060c0033",
  "devdoc": {
    "kind": "dev",
    "methods": {
      "allowance(address,address)": {
        "details": "See {IERC20-allowance}."
      },
      "approve(address,uint256)": {
        "details": "See {IERC20-approve}. Requirements: - `spender` cannot be the zero address."
      },
      "balanceOf(address)": {
        "details": "See {IERC20-balanceOf}."
      },
      "decimals()": {
        "details": "Returns the number of decimals used to get its user representation. For example, if `decimals` equals `2`, a balance of `505` tokens should be displayed to a user as `5,05` (`505 / 10 ** 2`). Tokens usually opt for a value of 18, imitating the relationship between Ether and Wei. This is the value {ERC20} uses, unless {_setupDecimals} is called. NOTE: This information is only used for _display_ purposes: it in no way affects any of the arithmetic of the contract, including {IERC20-balanceOf} and {IERC20-transfer}."
      },
      "decreaseAllowance(address,uint256)": {
        "details": "Atomically decreases the allowance granted to `spender` by the caller. This is an alternative to {approve} that can be used as a mitigation for problems described in {IERC20-approve}. Emits an {Approval} event indicating the updated allowance. Requirements: - `spender` cannot be the zero address. - `spender` must have allowance for the caller of at least `subtractedValue`."
      },
      "delegate(address)": {
        "params": {
          "delegatee": "The address to delegate votes to"
        }
      },
      "delegateBySig(address,uint256,uint256,uint8,bytes32,bytes32)": {
        "params": {
          "delegatee": "The address to delegate votes to",
          "expiry": "The time at which to expire the signature",
          "nonce": "The contract state required to match the signature",
          "r": "Half of the ECDSA signature pair",
          "s": "Half of the ECDSA signature pair",
          "v": "The recovery byte of the signature"
        }
      },
      "delegates(address)": {
        "params": {
          "delegator": "The address to get delegatee for"
        }
      },
      "getCurrentVotes(address)": {
        "params": {
          "account": "The address to get votes balance"
        },
        "returns": {
          "_0": "The number of current votes for `account`"
        }
      },
      "getPriorVotes(address,uint256)": {
        "details": "Block number must be a finalized block or else this function will revert to prevent misinformation.",
        "params": {
          "account": "The address of the account to check",
          "blockNumber": "The block number to get the vote balance at"
        },
        "returns": {
          "_0": "The number of votes the account had as of the given block"
        }
      },
      "increaseAllowance(address,uint256)": {
        "details": "Atomically increases the allowance granted to `spender` by the caller. This is an alternative to {approve} that can be used as a mitigation for problems described in {IERC20-approve}. Emits an {Approval} event indicating the updated allowance. Requirements: - `spender` cannot be the zero address."
      },
      "name()": {
        "details": "Returns the name of the token."
      },
      "owner()": {
        "details": "Returns the address of the current owner."
      },
      "renounceOwnership()": {
        "details": "Leaves the contract without owner. It will not be possible to call `onlyOwner` functions anymore. Can only be called by the current owner. NOTE: Renouncing ownership will leave the contract without an owner, thereby removing any functionality that is only available to the owner."
      },
      "symbol()": {
        "details": "Returns the symbol of the token, usually a shorter version of the name."
      },
      "totalSupply()": {
        "details": "See {IERC20-totalSupply}."
      },
      "transfer(address,uint256)": {
        "details": "See {IERC20-transfer}. Requirements: - `recipient` cannot be the zero address. - the caller must have a balance of at least `amount`."
      },
      "transferFrom(address,address,uint256)": {
        "details": "See {IERC20-transferFrom}. Emits an {Approval} event indicating the updated allowance. This is not required by the EIP. See the note at the beginning of {ERC20}. Requirements: - `sender` and `recipient` cannot be the zero address. - `sender` must have a balance of at least `amount`. - the caller must have allowance for ``sender``'s tokens of at least `amount`."
      },
      "transferOwnership(address)": {
        "details": "Transfers ownership of the contract to a new account (`newOwner`). Can only be called by the current owner."
      }
    },
    "version": 1
  },
  "userdoc": {
    "events": {
      "DelegateChanged(address,address,address)": {
        "notice": "An event thats emitted when an account changes its delegate"
      },
      "DelegateVotesChanged(address,uint256,uint256)": {
        "notice": "An event thats emitted when a delegate account's vote balance changes"
      }
    },
    "kind": "user",
    "methods": {
      "DELEGATION_TYPEHASH()": {
        "notice": "The EIP-712 typehash for the delegation struct used by the contract"
      },
      "DOMAIN_TYPEHASH()": {
        "notice": "The EIP-712 typehash for the contract's domain"
      },
      "checkpoints(address,uint32)": {
        "notice": "A record of votes checkpoints for each account, by index"
      },
      "delegate(address)": {
        "notice": "Delegate votes from `msg.sender` to `delegatee`"
      },
      "delegateBySig(address,uint256,uint256,uint8,bytes32,bytes32)": {
        "notice": "Delegates votes from signatory to `delegatee`"
      },
      "delegates(address)": {
        "notice": "Delegate votes from `msg.sender` to `delegatee`"
      },
      "getCurrentVotes(address)": {
        "notice": "Gets the current votes balance for `account`"
      },
      "getPriorVotes(address,uint256)": {
        "notice": "Determine the prior number of votes for an account as of a block number"
      },
      "mint(address,uint256)": {
        "notice": "Creates `_amount` token to `_to`. Must only be called by the owner (MasterChef)."
      },
      "nonces(address)": {
        "notice": "A record of states for signing / validating signatures"
      },
      "numCheckpoints(address)": {
        "notice": "The number of checkpoints for each account"
      }
    },
    "version": 1
  },
  "storageLayout": {
    "storage": [
      {
        "astId": 481,
        "contract": "contracts/fatex/XFateToken.sol:XFateToken",
        "label": "_balances",
        "offset": 0,
        "slot": "0",
        "type": "t_mapping(t_address,t_uint256)"
      },
      {
        "astId": 487,
        "contract": "contracts/fatex/XFateToken.sol:XFateToken",
        "label": "_allowances",
        "offset": 0,
        "slot": "1",
        "type": "t_mapping(t_address,t_mapping(t_address,t_uint256))"
      },
      {
        "astId": 489,
        "contract": "contracts/fatex/XFateToken.sol:XFateToken",
        "label": "_totalSupply",
        "offset": 0,
        "slot": "2",
        "type": "t_uint256"
      },
      {
        "astId": 491,
        "contract": "contracts/fatex/XFateToken.sol:XFateToken",
        "label": "_name",
        "offset": 0,
        "slot": "3",
        "type": "t_string_storage"
      },
      {
        "astId": 493,
        "contract": "contracts/fatex/XFateToken.sol:XFateToken",
        "label": "_symbol",
        "offset": 0,
        "slot": "4",
        "type": "t_string_storage"
      },
      {
        "astId": 495,
        "contract": "contracts/fatex/XFateToken.sol:XFateToken",
        "label": "_decimals",
        "offset": 0,
        "slot": "5",
        "type": "t_uint8"
      },
      {
        "astId": 7,
        "contract": "contracts/fatex/XFateToken.sol:XFateToken",
        "label": "_owner",
        "offset": 1,
        "slot": "5",
        "type": "t_address"
      },
      {
        "astId": 6516,
        "contract": "contracts/fatex/XFateToken.sol:XFateToken",
        "label": "_delegates",
        "offset": 0,
        "slot": "6",
        "type": "t_mapping(t_address,t_address)"
      },
      {
        "astId": 6528,
        "contract": "contracts/fatex/XFateToken.sol:XFateToken",
        "label": "checkpoints",
        "offset": 0,
        "slot": "7",
        "type": "t_mapping(t_address,t_mapping(t_uint32,t_struct(Checkpoint)6521_storage))"
      },
      {
        "astId": 6533,
        "contract": "contracts/fatex/XFateToken.sol:XFateToken",
        "label": "numCheckpoints",
        "offset": 0,
        "slot": "8",
        "type": "t_mapping(t_address,t_uint32)"
      },
      {
        "astId": 6550,
        "contract": "contracts/fatex/XFateToken.sol:XFateToken",
        "label": "nonces",
        "offset": 0,
        "slot": "9",
        "type": "t_mapping(t_address,t_uint256)"
      },
      {
        "astId": 8968,
        "contract": "contracts/fatex/XFateToken.sol:XFateToken",
        "label": "fate",
        "offset": 0,
        "slot": "10",
        "type": "t_contract(FateToken)7113"
      }
    ],
    "types": {
      "t_address": {
        "encoding": "inplace",
        "label": "address",
        "numberOfBytes": "20"
      },
      "t_contract(FateToken)7113": {
        "encoding": "inplace",
        "label": "contract FateToken",
        "numberOfBytes": "20"
      },
      "t_mapping(t_address,t_address)": {
        "encoding": "mapping",
        "key": "t_address",
        "label": "mapping(address => address)",
        "numberOfBytes": "32",
        "value": "t_address"
      },
      "t_mapping(t_address,t_mapping(t_address,t_uint256))": {
        "encoding": "mapping",
        "key": "t_address",
        "label": "mapping(address => mapping(address => uint256))",
        "numberOfBytes": "32",
        "value": "t_mapping(t_address,t_uint256)"
      },
      "t_mapping(t_address,t_mapping(t_uint32,t_struct(Checkpoint)6521_storage))": {
        "encoding": "mapping",
        "key": "t_address",
        "label": "mapping(address => mapping(uint32 => struct FateToken.Checkpoint))",
        "numberOfBytes": "32",
        "value": "t_mapping(t_uint32,t_struct(Checkpoint)6521_storage)"
      },
      "t_mapping(t_address,t_uint256)": {
        "encoding": "mapping",
        "key": "t_address",
        "label": "mapping(address => uint256)",
        "numberOfBytes": "32",
        "value": "t_uint256"
      },
      "t_mapping(t_address,t_uint32)": {
        "encoding": "mapping",
        "key": "t_address",
        "label": "mapping(address => uint32)",
        "numberOfBytes": "32",
        "value": "t_uint32"
      },
      "t_mapping(t_uint32,t_struct(Checkpoint)6521_storage)": {
        "encoding": "mapping",
        "key": "t_uint32",
        "label": "mapping(uint32 => struct FateToken.Checkpoint)",
        "numberOfBytes": "32",
        "value": "t_struct(Checkpoint)6521_storage"
      },
      "t_string_storage": {
        "encoding": "bytes",
        "label": "string",
        "numberOfBytes": "32"
      },
      "t_struct(Checkpoint)6521_storage": {
        "encoding": "inplace",
        "label": "struct FateToken.Checkpoint",
        "members": [
          {
            "astId": 6518,
            "contract": "contracts/fatex/XFateToken.sol:XFateToken",
            "label": "fromBlock",
            "offset": 0,
            "slot": "0",
            "type": "t_uint32"
          },
          {
            "astId": 6520,
            "contract": "contracts/fatex/XFateToken.sol:XFateToken",
            "label": "votes",
            "offset": 0,
            "slot": "1",
            "type": "t_uint256"
          }
        ],
        "numberOfBytes": "64"
      },
      "t_uint256": {
        "encoding": "inplace",
        "label": "uint256",
        "numberOfBytes": "32"
      },
      "t_uint32": {
        "encoding": "inplace",
        "label": "uint32",
        "numberOfBytes": "4"
      },
      "t_uint8": {
        "encoding": "inplace",
        "label": "uint8",
        "numberOfBytes": "1"
      }
    }
  }
}